:100000000C9463000C948B000C948B000C948B006C
:100010000C948B000C948B000C948B000C948B0034
:100020000C948B000C948B000C948B000C948B0024
:100030000C948B000C948B000C948B000C948B0014
:100040000C948E050C948B000C945C050C94360576
:100050000C948B000C948B000C948B000C948B00F4
:100060000C94D8050C948B0000000000240027009D
:100070002A0000000000250028002B0000000000DE
:1000800023002600290004040404040404040202DA
:100090000202020203030303030301020408102007
:1000A0004080010204081020010204081020000012
:1000B0000008000201000003040700000000000027
:1000C0000000F306460A11241FBECFEFD8E0DEBFC2
:1000D000CDBF22E0A2E7B1E001C01D92A93AB2076C
:1000E000E1F711E0A0E0B1E0E4EDF9E102C0059034
:1000F0000D92A237B107D9F710E0C2E6D0E004C0F4
:100100002197FE010E94C20AC136D107C9F70E9499
:1001100037070C94DD0C0C9400000895AF92BF9249
:10012000CF92DF92EF92FF920F931F93CF93DF93C3
:100130006C017B018B01040F151FEB015E01AE18F2
:10014000BF08C017D10759F06991D601ED91FC9114
:100150000190F081E02DC6010995892B79F7C50141
:10016000DF91CF911F910F91FF90EF90DF90CF9093
:10017000BF90AF900895FC014481558160817181E9
:1001800080EF91E00C948E00FC01538D448D252F5F
:1001900030E0842F90E0821B930B541710F0CF9621
:1001A000089501970895FC01918D828D981761F053
:1001B000A28DAE0FBF2FB11D5D968C91928D9F5F6A
:1001C0009F73928F90E008958FEF9FEF08952FB760
:1001D000F8948091EC019091ED01A091EE01B09125
:1001E000EF012FBF8093F8019093F901A093FA01DA
:1001F000B093FB0180EF91E00E94D30097FF26C0EF
:100200002FB7F8948091EC019091ED01A091EE014F
:10021000B091EF012FBF4091F8015091F901609129
:10022000FA017091FB01841B950BA60BB70B409153
:10023000F4015091F5016091F6017091F701841776
:100240009507A607B707B0F28FEF9FEF0895FC015F
:10025000918D828D981731F0828DE80FF11D858D7B
:1002600090E008958FEF9FEF0895FC01918D228D0E
:10027000892F90E0805C9F4F821B91098F73992793
:10028000089580EF91E00E94350121E0892B09F467
:1002900020E0822F089580E090E0892B29F00E94D1
:1002A000410181110C9400000895FC01A48DA80F58
:1002B000B92FB11DA35ABF4F2C91848D90E00196A8
:1002C0008F739927848FA689B7892C93A089B189C8
:1002D0008C91837080648C93938D848D981306C069
:1002E0000288F389E02D80818F7D80830895EF92CD
:1002F000FF920F931F93CF93DF93EC0181E0888FE0
:100300009B8D8C8D98131AC0E889F989808185FFAF
:1003100015C09FB7F894EE89FF896083E889F98951
:1003200080818370806480839FBF81E090E0DF9153
:10033000CF911F910F91FF90EF900895F62E0B8DA6
:1003400010E00F5F1F4F0F731127E02E8C8D8E1161
:100350000CC00FB607FCFACFE889F989808185FFC8
:10036000F5CFCE010E945501F1CFEB8DEC0FFD2FA3
:10037000F11DE35AFF4FF0829FB7F8940B8FEA8983
:10038000FB8980818062CFCFCF93DF93EC01888D92
:100390008823B9F0AA89BB89E889F9898C9185FD00
:1003A00003C0808186FD0DC00FB607FCF7CF8C918E
:1003B00085FFF2CF808185FFEDCFCE010E945501F0
:1003C000E9CFDF91CF910895833081F028F4813017
:1003D00099F08230A9F008958730A9F08830C9F0EB
:1003E0008430B1F4809180008F7D03C080918000C3
:1003F0008F7780938000089584B58F7784BD0895AA
:1004000084B58F7DFBCF8091B0008F778093B00053
:1004100008958091B0008F7DF9CFCF93DF93282F7F
:1004200030E0F901E255FF4F8491F901E656FF4FA4
:10043000D491F901EA57FF4FC491CC23A1F0811167
:100440000E94E401EC2FF0E0EE0FFF1FE458FF4F95
:10045000A591B491EC91ED2381E090E009F480E066
:10046000DF91CF91089580E090E0FACF1F93CF9372
:10047000DF93282F30E0F901E255FF4F8491F90115
:10048000E656FF4FD491F901EA57FF4FC491CC23B0
:10049000A9F0162F81110E94E401EC2FF0E0EE0F7D
:1004A000FF1FEE58FF4FA591B4918FB7F894EC91D0
:1004B000111108C0D095DE23DC938FBFDF91CF915F
:1004C0001F910895DE2BF8CFCF93DF9390E0FC01CE
:1004D000E656FF4F24918A579F4FFC018491882351
:1004E000D1F090E0880F991FFC01E859FF4FA591CA
:1004F000B491FC01EE58FF4FC591D491623071F474
:100500009FB7F8943C91822F809583238C93E88148
:100510002E2B28839FBFDF91CF9108958FB7F8943A
:10052000EC912E2B2C938FBFF6CF1F93CF93DF939D
:10053000182FEB0161E00E946402209739F460E01B
:10054000812FDF91CF911F910C943602CF3FD105BF
:1005500011F461E0F5CFE12FF0E0E255FF4FE491B7
:10056000E33031F140F4E130B1F0E230E1F0C03895
:10057000D1057CF7E4CFE73029F1E83059F1E430D8
:10058000B1F780918000806280938000D0938B00CF
:10059000C0938A0004C084B5806884BDC7BDDF9164
:1005A000CF911F91089584B5806284BDC8BDF7CFF7
:1005B00080918000806880938000D0938900C093F0
:1005C0008800EDCF8091B00080688093B000C09328
:1005D000B300E5CF8091B00080628093B000C093FB
:1005E000B400DDCF3FB7F8948091DE019091DF0138
:1005F000A091E001B091E10126B5A89B05C02F3F75
:1006000019F00196A11DB11D3FBFBA2FA92F982F38
:100610008827BC01CD01620F711D811D911D42E033
:10062000660F771F881F991F4A95D1F7089585EDAA
:100630008093BC008091BC0084FDFCCF1092B70178
:10064000089520919301260F3327331F213231055E
:10065000ECF42091B701FC0190E080E0243069F0D7
:1006600082E00895A09193012191AC014D585E4F15
:10067000A40FB52FB11D2C930196861798F3809186
:100680009301680F6093930180E0089581E00895DD
:1006900008958FEF9FEF08958FEF9FEF089580915A
:1006A000720190E09195819591090895CF93DF9320
:1006B000CB01EA01642F0E942103CE01DF91CF918B
:1006C0000895CF93DF931F92CDB7DEB7698361E0C2
:1006D000CE0101960E94210381E090E00F90DF910E
:1006E000CF91089590E080E0089542E050E068E105
:1006F00071E080EF91E00C948E00CF93DF93209116
:10070000A3023091A402232B89F0FC01C0919F0227
:10071000D091A00260817181CE010E94C30C00972C
:1007200029F08C1B9D0BDF91CF9108958FEF9FEFE8
:10073000FACFFC0124813581232B39F421E0FB0120
:100740008081882349F020E007C0808191810E9448
:10075000B30C21E0892BB9F7822F08950F931F93D3
:10076000CF93DF938C01EB01FC0180819181009795
:10077000E1F06881798161157105A9F042815381A9
:100780002C813D814217530770F00E94BC0C8C8174
:100790009D81F801958384831D821C82DF91CF9116
:1007A0001F910F9108950E94640B88819981F8012F
:1007B000918380838A819B81938382838C819D81B5
:1007C00095838483198218821B821A82E5CFCF9386
:1007D000DF93EC0188819981009711F00E94640BEE
:1007E000198218821D821C821B821A82DF91CF918E
:1007F0000895FC01808191810C94640B0F931F93E9
:10080000CF93DF93EC0188819981009759F02A8179
:100810003B812617370730F081E0DF91CF911F91A0
:100820000F9108958B016F5F7F4F0E94ED0B009732
:1008300059F0998388831B830A832C813D81232B64
:1008400059F7FC011082E8CF80E0E7CFEF92FF92EA
:100850000F931F93CF93DF93EC01FB01E080F180B6
:10086000E114F10411F10481158101151105A9F0BC
:100870008C819D81080F191FB801CE010E94FE03D3
:10088000882399F0288139818C819D81B701820F5D
:10089000931F0E94BC0C1D830C83CE01DF91CF916E
:1008A0001F910F91FF90EF900895CE010E94E703F2
:1008B000F4CFEF92FF920F931F93CF93DF93EC014E
:1008C0007B018A01BA010E94FE0381110BC0CE0197
:1008D0000E94E703CE01DF91CF911F910F91FF900E
:1008E000EF9008951D830C83B701888199810E9440
:1008F000BC0CF0CFEF92FF920F931F93CF93DF9337
:10090000CDB7DEB762970FB6F894DEBF0FBECDBF8E
:100910008C01CB01F80111821082138212821582A0
:1009200014824AE09E012F5F3F4F7901B9010E9476
:10093000560AF70101900020E9F73197AF014E19EF
:100940005F09B701C8010E94590462960FB6F89476
:10095000DEBF0FBECDBFDF91CF911F910F91FF90F2
:10096000EF900895CF93DF93EC01FB018617970773
:1009700049F0608171816115710541F044815581B3
:100980000E945904CE01DF91CF9108950E94E703A0
:10099000F9CFFC0111821082138212821582148217
:1009A0000C94B204FC01118210821382128215820F
:1009B0001482FB0101900020E9F73197AF01461B3B
:1009C000570B0C945904CF92DF92EF92FF920F9342
:1009D0001F93CF93DF937C016B018A014617570762
:1009E00020F48D2D6A01062F182F6AE171E0C701EE
:1009F0000E94D204C091A302D091A402CC16DD06BD
:100A000038F50C171D0708F4E801E0919F02F091FA
:100A1000A002EC0FFD1F1081108260919F02709167
:100A2000A0026C0D7D1D61157105E1F0FB010190C7
:100A30000020E9F73197AF01461B570BC7010E9411
:100A4000590480919F029091A002C80FD91F18836A
:100A5000C701DF91CF911F910F91FF90EF90DF9031
:100A6000CF900895C7010E94E703EBCF1F920F922A
:100A70000FB60F9211242F933F934F935F936F9371
:100A80007F938F939F93AF93BF93EF93FF9380EFE9
:100A900091E00E945501FF91EF91BF91AF919F911D
:100AA0008F917F916F915F914F913F912F910F9017
:100AB0000FBE0F901F9018951F920F920FB60F92B6
:100AC00011242F938F939F93EF93FF93E091000254
:100AD000F09101028081E0910602F091070282FD0F
:100AE0001BC09081809109028F5F8F7320910A0251
:100AF000821741F0E0910902F0E0E051FE4F958F3E
:100B000080930902FF91EF919F918F912F910F9008
:100B10000FBE0F901F9018958081F4CF1F920F92F7
:100B20000FB60F9211242F933F938F939F93AF9300
:100B3000BF938091EC019091ED01A091EE01B091F5
:100B4000EF013091DD0123E0230F2D3758F5019699
:100B5000A11DB11D2093DD018093EC019093ED0167
:100B6000A093EE01B093EF018091DE019091DF013F
:100B7000A091E001B091E1010196A11DB11D80930A
:100B8000DE019093DF01A093E001B093E101BF91FA
:100B9000AF919F918F913F912F910F900FBE0F902A
:100BA0001F90189526E8230F0296A11DB11DD2CFE4
:100BB0001F920F920FB60F9211242F933F934F93D2
:100BC0005F936F937F938F939F93AF93BF93EF93B5
:100BD000FF938091B900887F803609F44AC0F0F510
:100BE000883209F4A5C018F5803109F499C0B8F429
:100BF000882309F4F5C0883009F492C0FF91EF9181
:100C0000BF91AF919F918F917F916F915F914F9124
:100C10003F912F910F900FBE0F901F901895883124
:100C200009F486C0803251F78093B60114C0803435
:100C300009F49BC040F48033B9F38833F9F680930C
:100C4000B60185ECAEC0803509F483C0883509F45F
:100C500094C0883499F60E941703D0CF883909F4DC
:100C60008AC038F5883729F050F4883611F080377B
:100C700029F683E08093B7011092B50155C08838FA
:100C800009F479C0803919F0803809F0B7CF809124
:100C9000B501803208F06FC0E091B50181E08E0FA0
:100CA0008093B5018091BB00F0E0EB56FE4F80834E
:100CB0003BC0803B39F0D0F4803A09F477C0883AE1
:100CC00009F09CCF84E08093B701109294011092B8
:100CD0009301F0E0E0E009958091930181110FC04C
:100CE00081E0809393011092730109C0803C09F464
:100CF000A8CF883C09F4A5CF883B09F07FCFE091CD
:100D0000940181E08E0F80939401F0E0ED58FE4F46
:100D100080818093BB00909194018091930129C0C0
:100D20008091DC018093BB0085EC8093BC0066CF92
:100D30009091DB018091DA01981758F5E091DB0181
:100D400081E08E0F8093DB01F0E0E654FE4F80815E
:100D5000E9CFE091DB0181E08E0F8093DB01809190
:100D6000BB00F0E0E654FE4F80839091DB01809160
:100D7000DA019817C8F285E8D8CFE091DB0181E06D
:100D80008E0F8093DB018091BB00F0E0E654FE4FB4
:100D900080838091B90181115ECF81E08093B80199
:100DA00084EA8093BC001092B70128CF85EC809331
:100DB000BC001092B7018091B501803230F4E0910F
:100DC000B501F0E0EB56FE4F10826091B50170E086
:100DD00085E991E0F0E0E0E009951092B5010ECFD1
:100DE0001092B60138CFE0EFF1E01382128288EE64
:100DF00093E0A0E0B0E084839583A683B7838AE084
:100E000091E09183808385EC90E09587848784ECE2
:100E100090E09787868780EC90E0918B808B81ECC7
:100E200090E0938B828B82EC90E0958B848B86ECA8
:100E300090E0978B868B118E128E138E148E6AE142
:100E400071E08FE992E00E94D2046AE171E089E9E1
:100E500092E00E94D2046AE171E083E992E00E948C
:100E6000D2046AE171E08DE892E00C94D204CF9351
:100E7000DF93CDB7DEB76E970FB6F894DEBF0FBE27
:100E8000CDBF789484B5826084BD84B5816084BD13
:100E900085B5826085BD85B5816085BD80916E0018
:100EA000816080936E001092810080918100826049
:100EB0008093810080918100816080938100809186
:100EC00080008160809380008091B1008460809375
:100ED000B1008091B00081608093B00080917A0071
:100EE000846080937A0080917A00826080937A0097
:100EF00080917A00816080937A0080917A00806886
:100F000080937A001092C100E0910002F0910102FA
:100F100082E08083E091FC01F091FD011082E0917C
:100F2000FE01F091FF0180E1808310920802E091C0
:100F30000402F091050286E08083E0910202F091C4
:100F40000302808180618083E0910202F0910302BC
:100F5000808188608083E0910202F09103028081A9
:100F600080688083E0910202F091030280818F7D8E
:100F7000808361E08AE00E94640261E08FE00E9469
:100F8000640261E08EE00E94640261E083E00E94FE
:100F9000640261E084E00E94640261E085E00E94F6
:100FA000640261E089E00E94640261E08CE00E94DA
:100FB000640261E08BE00E94640261E086E00E94CE
:100FC000640261E088E00E94640261E087E00E94C0
:100FD000640262E080E10E94640262E081E10E94BA
:100FE000640262E083E10E94640262E082E10E94A6
:100FF000640290E0C92E90E0D92E80EF91E00E942B
:101000003501892B09F481C06AE171E0CE010196B6
:101010000E94D2040E94E70097FD1EC08A3091050D
:10102000D9F08F8318860D811E810F5F1F4FB80185
:10103000CE0101960E94FE03882361F329813A8143
:101040008D819E81BE01695F7F4F820F931F0E9439
:10105000BC0C1E830D83DECFBE016F5F7F4F8FE917
:1010600092E00E94AE03CE0101960E94F9036BE16B
:1010700071E0CE0101960E94D204CE0101960E9439
:101080007D037C019093EB018093EA01CE010196F0
:101090000E94F9036EE171E0CE0101960E94D20434
:1010A000CE0101960E947D038C019093E90180930B
:1010B000E801CE0101960E94F903B7016E5F7F4FF0
:1010C00043E050E0CE0101960E94E304BE016F5F51
:1010D0007F4F89E992E00E94AE03CE0101960E9403
:1010E000F903B8016E5F7F4F4BE050E0CE010196EF
:1010F0000E94E304BE016F5F7F4F83E992E00E948C
:10110000AE03CE0101960E94F90380E10E940D0218
:101110009093E7018093E60181E10E940D02909394
:10112000E5018093E40183E10E940D029093E301C5
:101130008093E20182E10E940D02BC01CE01019682
:101140000E947A046091E2017091E301CE0107965A
:101150000E947A046091E4017091E501CE010D9640
:101160000E947A046091E6017091E701CE014996F0
:101170000E947A04BE01675E7F4FCE0143960E94B3
:10118000C904BE01635F7F4FCE0143960E942604CF
:10119000BE01695F7F4F0E942604BE016F5F7F4FD3
:1011A0000E942604BC018DE892E00E94B204CE01A8
:1011B00043960E94F903CE0149960E94F903CE019D
:1011C0000D960E94F903CE0107960E94F903CE0105
:1011D00001960E94F90361E271E0CE0101960E943E
:1011E000D20469E972E0CE0101960E9426040E94B1
:1011F000BB00CE0101960E94F90365E271E089E926
:1012000092E00E949903811109C067E271E089E9C7
:1012100092E00E949903882309F498C06DE872E077
:10122000CE0107960E94C90469E972E0CE010D96CD
:101230000E94C90465E271E0CE010D960E949903F7
:10124000882309F45CC069E271E0CE0101960E9436
:10125000D204BE01695F7F4FCE0101960E94260431
:101260000E94BB00CE0101960E94F90368EC70E079
:101270008AE00E94950261E08FE00E94360260E001
:101280008EE00E9436020E947503CE010D960E94E8
:10129000F903CE0107960E94F9030E9475030E948C
:1012A000F2022B013C018AEF882E912CA12CB12C4B
:1012B0000E94F2026419750986099709683E734015
:1012C00081059105A8F321E0821A9108A108B108CF
:1012D00088EE480E83E0581E611C711C8114910435
:1012E000A104B10429F7C114D10409F486CE0E94E7
:1012F0004101882309F481CE0E9400007ECE67E27E
:1013000071E0CE010D960E949903882309F4BBCFAA
:1013100064E371E0CE0101960E94D204BE01695FD0
:101320007F4FCE0101960E9426040E94BB00CE0191
:1013300001960E94F90368EC70E08AE00E94950231
:1013400060E08FE00E94360261E09ACF6FE371E0C7
:1013500089E992E00E949903811133C061E471E050
:1013600089E992E00E94990381112BC063E471E046
:1013700089E992E00E949903882309F47CC06DE812
:1013800072E0CE0107960E94C90463E972E0CE01C3
:101390000D960E94C9046BE571E0CE0101960E9492
:1013A000D204BE01695F7F4FCE0101960E942604E0
:1013B0000E94BB000E947503CE0101960E94F903B2
:1013C00064CF6DE872E0CE0107960E94C90469E916
:1013D00072E0CE010D960E94C9046FE371E0CE0168
:1013E0000D960E9499038823F9F065E471E0CE011F
:1013F00001960E94D204BE01695F7F4FCE01019623
:101400000E9426040E94BB00CE0101960E94F903AF
:1014100068EC70E083E00E94950261E084E00E9445
:10142000360260E085E02DCF61E471E0CE010D96DB
:101430000E949903882309F426CF60E571E0CE016C
:1014400001960E94D204BE01695F7F4FCE010196D2
:101450000E9426040E94BB00CE0101960E94F9035F
:1014600068EC70E083E00E94950260E084E00E94F6
:10147000360261E0D7CF49E050E067E671E080EFE7
:1014800091E00E948E000E94750307CF8DE892E0E4
:101490000E94F90383E992E00E94F90389E992E04E
:1014A0000E94F9038FE992E00C94F903BB274A30BC
:1014B00031F4992322F4BDE2909581959F4F0C94CD
:1014C000620ABB27FB015527AA27880F991FAA1F6D
:1014D000A41710F0A41B83955051B9F7A05DAA334F
:1014E00008F0A95DA193009779F7B111B19311921A
:1014F000CB010C947B0ADC01FC01672F71917723EF
:10150000E1F7329704C07C916D9370836291AE17BE
:10151000BF07C8F308952F923F924F925F926F9248
:101520007F928F929F92AF92BF92CF92DF92EF9273
:10153000FF920F931F93CF93DF93CDB7DEB7CA1BF4
:10154000DB0B0FB6F894DEBF0FBECDBF09942A881F
:10155000398848885F846E847D848C849B84AA84C7
:10156000B984C884DF80EE80FD800C811B81AA8154
:10157000B981CE0FD11D0FB6F894DEBF0FBECDBF1F
:10158000ED010895EE0FFF1F0590F491E02D0994F1
:101590000F931F93CF93DF938230910510F482E075
:1015A00090E0E091A702F091A80230E020E0B0E0E6
:1015B000A0E0309799F42115310509F44AC0281BA1
:1015C000390B24303105D8F58A819B81611571056D
:1015D00089F1FB0193838283FE0111C04081518117
:1015E0000281138148175907E0F04817590799F409
:1015F000109761F012960C93129713961C933296E3
:10160000CF01DF91CF911F910F9108950093A70211
:101610001093A802F4CF2115310551F0421753075A
:1016200038F0A901DB019A01BD01DF01F801C1CF4A
:10163000EF01F9CF9093A8028093A702CDCFFE01CE
:10164000E20FF31F8193919322503109398328834C
:10165000D7CF2091A5023091A602232B41F42091EF
:101660000201309103013093A6022093A50220913C
:101670000001309101012115310541F42DB73EB72C
:101680004091040150910501241B350BE091A50206
:10169000F091A602E217F307A0F42E1B3F0B2817C8
:1016A000390778F0AC014E5F5F4F2417350748F0DB
:1016B0004E0F5F1F5093A6024093A5028193919312
:1016C0009FCFF0E0E0E09CCFCF93DF930097E9F06D
:1016D000FC01329713821282A091A702B091A80256
:1016E000ED0130E020E01097A1F420813181820FDC
:1016F000931F2091A5023091A6022817390709F0FF
:1017000061C0F093A602E093A502DF91CF91089506
:10171000EA01CE17DF07E8F54A815B819E0141159A
:101720005105B1F7E901FB83EA8349915991C40F4F
:10173000D51FEC17FD0761F4808191810296840F1B
:10174000951FE90199838883828193819B838A8392
:10175000F0E0E0E012968D919C9113970097B9F517
:101760002D913C911197CD010296820F931F2091EC
:10177000A5023091A6022817390739F6309751F59E
:101780001092A8021092A702B093A602A093A502FD
:10179000BCCFD383C28340815181840F951FC8176A
:1017A000D90761F44E5F5F4F88819981480F591FB7
:1017B000518340838A819B819383828321153105E4
:1017C00009F0B0CFF093A802E093A7029ECFFD01ED
:1017D000DC01C0CF13821282D7CFB0E0A0E0E3EFEC
:1017E000FBE00C948D0A8C01009751F4CB010E9410
:1017F000C80A8C01C801CDB7DEB7E0E10C94A90A94
:10180000FC01E60FF71F9C0122503109E217F30794
:1018100008F49DC0D901CD91DC911197C617D70767
:1018200098F0C530D10530F3CE010497861797079D
:1018300008F3C61BD70B2297C193D1936D937C936A
:10184000CF010E94640BD6CF5B01AC1ABD0A4C01DC
:101850008C0E9D1EA091A702B091A802512C412C84
:10186000F12CE12C109731F58091A5029091A60200
:101870008815990509F05CC04616570608F058C04F
:101880008091000190910101009741F48DB79EB7BE
:101890004091040150910501841B950BE817F9074D
:1018A00008F055C0F093A602E093A502F9017183F8
:1018B0006083A0CF8D919C91119712966C90129796
:1018C00013967C901397A815B90559F56C0142E061
:1018D000C40ED11CCA14DB0420F1AC014A195B0907
:1018E000DA011296159780F06282738251834083E9
:1018F000D9016D937C93E114F10471F0D701139633
:10190000FC93EE93129776CF22968C0F9D1FF901D0
:1019100091838083F301EFCFF093A802E093A702B5
:1019200069CF4816590608F42C017D01D3019ACFDE
:10193000CB010E94C80A7C01009749F0AE01B801B2
:101940000E94AA0CC8010E94640B870153CF10E0CB
:1019500000E050CFFB01DC0102C001900D9241502C
:101960005040D8F70895FB01DC018D91019080195A
:101970000110D9F3990B0895FB01DC0101900D9240
:101980000020E1F70895FB0151915523A9F0BF0113
:10199000DC014D9145174111E1F759F4CD0101905A
:1019A000002049F04D9140154111C9F3FB0141114F
:1019B000EFCF81E090E00197089510E0C2E6D0E01B
:1019C00004C0FE010E94C20A2196C336D107C9F79E
:0419D000F894FFCFB9
:1019D4000000A90280000000000077018E00C4000E
:1019E400C4013501D30027010D0A0054580054598D
:1019F4000054587C00310032004D6F76657C4620DF
:101A040053577C004D6F76657C422053577C0033DE
:101A140000340035004D6F76657C4C2053577C00B4
:101A24004D6F76657C522053577C004D6F76657CF4
:101A340047522053577C004D6F76657C48414C5487
:021A44000000A0
:00000001FF
